:020000040800F2
:1000000018110020450100084D0100084F010008AB
:1000100051010008530100085501000800000000CC
:100020000000000000000000000000005701000870
:1000300059010008000000006358000867580008D4
:100040005F0100085F0100085F0100085F01000810
:100050005F0100085F0100085F0100085F01000800
:100060005F0100085F0100085F0100085F010008F0
:100070005F0100085F0100085F0100085F010008E0
:100080005F0100085F0100085F0100085F010008D0
:100090005F0100085F0100085F0100085F010008C0
:1000A0005F0100085F0100085F0100085F010008B0
:1000B0005F0100085F0100085F0100085F010008A0
:1000C0005F0100085F0100085F0100085F01000890
:1000D0005F0100085F0100085F010008F1160008D9
:1000E0005F0100085F0100085F0100085F01000870
:1000F0005F0100085F0100085F0100085F01000860
:100100005F0100085F0100085F0100085F0100084F
:100110005F0100085F0100085F0100085F0100083F
:100120005F0100085F0100085F0100085F0100082F
:10013000DFF80CD006F0C4FB004800477B14000831
:10014000181100200648804706480047FEE7FEE7F2
:10015000FEE7FEE7FEE7FEE7FEE7FEE7FEE7FEE777
:1001600011020008310100080CB500220192009232
:100170005248016841F4803101604FF4A063016886
:1001800001F4003100910199491C0191009911B9C4
:1001900001999942F3D10168890302D501210091A7
:1001A00000E000920099012930D145490A6842F0E7
:1001B00010020A600A6822F003020A600A6842F02C
:1001C00002020A604168416041684160416841F44F
:1001D00080614160416821F47C114160416841F4D3
:1001E000E8114160016841F0807101600168890196
:1001F000FCD5416821F003014160416841F00201F2
:1002000041604168C1F381010229FAD10CBDABE71D
:1002100010B52A48016841F0010101604168294A8E
:10022000114041600168284A11400160016821F4D1
:1002300080210160416821F4FE0141604FF41F01FB
:100240008160FFF7E4FF21494FF00060086010BDB6
:1002500010B51A4A506800F00C011D4B1D480029CA
:100260000ED004290ED008290ED003605168194A17
:10027000C1F30311121D515C0268CA40026010BD37
:100280000360F3E70360F1E7516801F4701153680C
:1002900003F48033022404EB914133B153689B0390
:1002A00007D50D4B59430160E0E70B4B5943016003
:1002B000DCE7074B59430160D8E70000001002401B
:1002C000002002400000FFF8FFFFF6FE08ED00E00E
:1002D00000127A000000002000093D002A4908436E
:1002E0002A490860704770B50F23C278012601784B
:1002F000002A1ED0254A126802F4E062C2F5E062CC
:10030000120AC2F10404D3404578A54082781A400D
:100310002A43120101F1E02181F80024007800F065
:100320001F018E404009800000F1E020C0F800610C
:1003300070BD01F01F0086404809800000F1E020F8
:10034000C0F8806170BD124A114001430F48001F80
:10035000016070470D4A121D002903D01168014346
:100360001160704711688143116070474FF0E021C0
:10037000042804D0086920F0040008617047086967
:1003800040F00400086170470000FA050CED00E041
:1003900080FFFF1F10B5DB4988420AD144150121B7
:1003A000204600F034FD2046BDE81040002100F05A
:1003B0002EBDD54988420AD104150121204600F0FE
:1003C00026FD2046BDE81040002100F020BDCF49A9
:1003D00088420AD10121CC03204600F018FD2046B6
:1003E000BDE81040002100F012BD10BD10B54268FC
:1003F000C74B1A400C790B6842EA0422134343604E
:100400008268C44B1A40D1E9024323434C7942EA43
:10041000440213438360C26A22F47002097C491EBD
:10042000C9B242EA0151C16210BD002101600171EF
:1004300041718160C160012101747047002904D0BD
:10044000816841F0010181607047816821F00101FC
:1004500081607047002904D0816841F48071816017
:100460007047816821F4807181607047C9B2002AA9
:1004700003D042680A434260704742688A43426040
:100480007047816841F00801816070470146002093
:100490008968090700D501207047816841F004018F
:1004A00081607047014600208968490700D5012016
:1004B0007047002904D0816841F4A0018160704731
:1004C000816821F4A001816070470146002089689D
:1004D000490200D501207047426822F46042491E5B
:1004E00042EA413141607047002904D0416841F43B
:1004F000006141607047416821F4006141607047CC
:1005000070B5072609290AD9C568A1F10A0404EBC8
:100510004404A640B543A3401D43C56007E00569F8
:1005200001EB4104A640B543A3401D4305611F23D1
:10053000072A09D2446B521E02EB820293409C436D
:1005400091400C43446370BD0D2A09D2046BD21F45
:1005500002EB820293409C4391400C43046370BDC4
:10056000C46A0D3A02EB820293409C4391400C43D3
:10057000C46270BD002904D0816841F4801181609B
:100580007047816821F4801181607047C06C80B22F
:1005900070475C484C3000687047002904D04168BF
:1005A00041F4806141607047416821F4806141609D
:1005B0007047002904D0416841F480514160704780
:1005C000416821F4805141607047826822F4E04222
:1005D0000A4382607047002904D0816841F40041D9
:1005E00081607047816821F4004181607047002973
:1005F00004D0816841F4021181607047816821F460
:10060000021181607047014600208968890200D587
:100610000120704770B5072609290AD9C568A1F1DC
:100620000A0404EB4404A640B543A3401D43C5603F
:1006300007E0056901EB4104A640B543A3401D4313
:100640000561836BC3F30154121B921C02EB8202FF
:100650001F249440A34391400B43836370BD826B7E
:1006600022F44012491E42EA01518163704708B5E5
:1006700000900098084400900098026008BD08B5FA
:10068000009000980844283000900098006880B2DC
:1006900008BD4268204B1A400A43426070474162DD
:1006A00082627047426822F01F020A43426070472C
:1006B00014490831002804D0086840F4000008609C
:1006C0007047086820F40000086070470246002068
:1006D00012680A4200D001207047C9430160704788
:1006E00010B5024600200B0A5468C9B20C401168CC
:1006F000194202D0002C00D0012010BD090AC943C4
:10070000016070470024014000280140003C014086
:10071000FFFEF0FFFDF7F1FFFFFD3FFF01684FF621
:10072000FE72114001600021016041608160C16082
:100730007249724A0839904204D1486840F00F006B
:10074000486070476D4A1432904204D1486840F0C6
:10075000F00048607047694A2832904204D14868E6
:1007600040F4706048607047644A3C32904204D163
:10077000486840F4704048607047604A5032904288
:1007800004D1486840F47020486070475B4A643286
:10079000904204D1486840F4700048607047574A5E
:1007A0007832904204D1486840F0706048607047E9
:1007B000534A111F904204D1086840F00F000860AE
:1007C00070474F4A1432904204D1086840F0F0005C
:1007D000086070474A4A2832904204D1086840F4C1
:1007E000706008607047464A3C32904204D1086805
:1007F00040F4704008607047414A50329042FAD14C
:10080000086840F470200860704730B5026847F609
:10081000F0739A430C6A8B682343D1E904452C4357
:1008200023438C692343CC6923434C6A23438C6A5A
:10083000234313430360CA6842600A6882604968C0
:10084000C16030BD0021016041608160C160016113
:1008500041618161C1610162416281627047002929
:1008600004D0016841F001010160704701684FF652
:10087000FE72114001607047002A03D002680A43EB
:100880000260704702688A430260704741607047A7
:10089000406880B2704702460020D10003D5184955
:1008A0000839096802E0154908390968114200D081
:1008B00001207047C10003D51149091F0860704726
:1008C0000E4908394860704702460020D10003D520
:1008D0000B490839096802E00849083909681142DA
:1008E00000D001207047C10003D50549091F0860E9
:1008F000704702490839486070470000080002400C
:100900000804024010B59C49884209D10121042005
:1009100000F07DFA0021BDE81040042000F077BA15
:100920009649884209D10121082000F070FA00217F
:10093000BDE81040082000F06ABA9149884209D108
:100940000121102000F063FA0021BDE810401020C2
:1009500000F05DBA8B49884209D10121202000F0C6
:1009600056FA0021BDE81040202000F050BA864918
:10097000884209D10121402000F049FA0021BDE858
:100980001040402000F043BA8049884209D101213B
:10099000802000F03CFA0021BDE81040802000F0EB
:1009A00036BA7B4988420AD184150121204600F0DD
:1009B0002EFA2046BDE81040002100F028BA10BDF4
:1009C00010B50121084600F022FA0021BDE81040D0
:1009D000012000F01CBA2DE9F0410022CC7804F08F
:1009E0000F03E40601D58C7823430C784FF00F07F2
:1009F00014F0FF0F4FF0010C1CD005680CFA02F444
:100A00000E882640A64211D1960007FA06F825EA7C
:100A1000080503FA06F848EA0505CE78282E02D024
:100A2000482E02D002E0446100E00461521C082A12
:100A3000E4D305600A88FF2A1ED94568002202F126
:100A400008060CFA06F40E882640A64210D196003D
:100A500007FA06F825EA080503FA06F848EA050544
:100A6000CE78282E00D14461CE78482E00D1046182
:100A7000521C082AE3D34560BDE8F0814FF6FF71B0
:100A80000180022181700421C1707047024600205C
:100A900092680A4200D001207047806880B2704797
:100AA00002460020D2680A4200D001207047C06888
:100AB00080B270470161704741617047002A01D0E0
:100AC0000161704741617047C160704741F48032F5
:100AD00082618161826181698069704710B52D4BA7
:100AE0001A684FF68074224042EA001008431860EA
:100AF00010BD2949C8617047F0B5264C002801DABD
:100B0000E36900E06368C0F30346420D120185B259
:100B1000C0F301579540032F07D0C2020CD5032222
:100B2000B240934343F0706209E023F0706263685F
:100B300023F07063636002E0AB4343F0706201B185
:100B40002A43002801DAE261F0BD6260F0BD10B511
:100B50008A07120F0F23934021F003040D4921440B
:100B60008C689C438C608B68904003438B6010BD05
:100B70000949DC310860704700080140000C014061
:100B8000001001400014014000180140001C014009
:100B9000002001400000014000002042B4480168EC
:100BA00041F0010101604168B24A114041600168B1
:100BB000B14A11400160016821F48021016041685F
:100BC00021F4FE0141604FF41F0181607047A84984
:100BD0000A6822F480320A600A6822F480220A60DD
:100BE000B0F5803F07D0B0F5802F03D1086840F4FE
:100BF000A02008607047086840F4803008607047A3
:100C00000346002059099A4A01290AD002290AD02C
:100C1000516A03F01F02012393400B4200D00120D0
:100C200070471168F5E7116AF3E718B500200090E6
:100C30004FF4A0643120FFF7E3FF0099491C0091B5
:100C40000099A14201D00028F4D03120FFF7D8FF4D
:100C500008B1012018BD002018BD854A116821F097
:100C6000F80141EAC000106070478449086070478D
:100C70007F4B5A6822F47C12084310435860704737
:100C80007E49086670477A4A516821F003010143A2
:100C9000516070477648406800F00C007047744A15
:100CA000516821F0F001014351607047704A51686A
:100CB00021F4E0610143516070476D4A516821F4AD
:100CC000605141EAC00050607047694A002903D072
:100CD000517A014351727047517A81435172704782
:100CE0006649D83108607047614A516821F4404133
:100CF0000143516070475E49002220310A7001F8BB
:100D00002029012805D0042802D1052081F82000DF
:100D10007047012081F820007047594908607047EA
:100D200053490A6A02430A627047554944390860C8
:100D3000704710B54E4A516801F00C01514B002923
:100D400027D0042927D0082927D00360516801F053
:100D5000F00109094C4B5C5C0168E140416054685A
:100D600004F4E064240A1C5D21FA04F484605468ED
:100D700004F46054E40A1B5DD940C160526802F477
:100D80004042920B404B1B1F9A5CB1FBF2F1016198
:100D900010BD0360DAE70360D8E7516801F4701111
:100DA000536803F48033022404EB914133B1536858
:100DB0009B0307D5354B59430160C7E7334B594374
:100DC0000160C3E72F4B59430160BFE7284A002960
:100DD00003D05169014351617047516981435161A9
:100DE0007047234A002903D09169014391617047FC
:100DF00091698143916170471D4A002903D0D169EF
:100E00000143D1617047D1698143D1617047184A6C
:100E1000002903D0D1680143D1607047D168814374
:100E2000D1607047124A002903D011690143116152
:100E30007047116981431161704711494039086059
:100E400070470E49C86470470949C871704708481F
:100E5000416A41F080714162704701460020044AB6
:100E600092680A4200D00120704701498872704799
:100E7000001002400000FFF8FFFFF6FE00004242B3
:100E80008004424200127A001800002000093D0050
:100E900010B5E14988420AD101218C032046FFF7B1
:100EA000B6FF2046BDE810400021FFF7B0BFDB4988
:100EB00088420AD101214C042046FFF7B3FF2046A7
:100EC000BDE810400021FFF7ADBFD54988420AD1E7
:100ED00001218C042046FFF7A5FF2046BDE8104005
:100EE0000021FFF79FBFCF4988420AD10121CC04DE
:100EF0002046FFF797FF2046BDE810400021FFF78E
:100F000091BFC94988420AD101210C052046FFF74B
:100F100089FF2046BDE810400021FFF783BF10BDC8
:100F200030B585B004460D46208A4CF6FF71084066
:100F3000E98801432182A0894EF6F3110840A9886F
:100F40002A8911436A8902431143A181A08A4FF67D
:100F5000FF410840A9890143A1826846FFF7E9FEE5
:100F6000AD48844201D1039800E00298A1890904A8
:100F700008D500EBC00101EB001029684900B0FB67
:100F8000F1F007E000EBC00101EB001029688900D7
:100F9000B0FBF1F06422B0FBF2F109010B096FF034
:100FA00018056B4300EB8300A3891D044FF0320347
:100FB00007D503EBC000B0FBF2F000F007000843D8
:100FC00006E003EB0010B0FBF2F000F00F00084366
:100FD000208105B030BD4FF41651016000218180A1
:100FE000C18001810C2242818181704710B5038A42
:100FF0004FF2FF0213400A884C8822438C88C9882C
:101000000C4322431A43028210BD0021018041801B
:101010008180C1807047002904D0818941F400514A
:1010200081817047818921F400518181704710B519
:1010300040F66A13C1F3421301F01F040121A140DD
:10104000012B07D0022B07D014303AB102680A43B3
:10105000026010BD0C30F8E71030F6E702688A43F2
:10106000026010BD002A03D0828A0A438282704740
:10107000828A8A4382827047028A22F00F020282A9
:10108000028A0A4302827047828922F400628281C6
:1010900082890A4382817047002904D0818941F006
:1010A000020181817047818921F0020181817047AD
:1010B000028A22F020020282028A0A4302827047D8
:1010C000002904D0018A41F4804101827047018ADD
:1010D00021F4804101827047C1F30801818070478B
:1010E0008088C0F308007047818941F00101818147
:1010F0007047028BD2B20283028B42EA0121018344
:101100007047028B02F47F420283028B0A43028300
:101110007047002904D0818A41F020018182704704
:10112000818A21F0200181827047002904D0818AC0
:1011300041F0100181827047818A21F01001818283
:101140007047002904D0818A41F0080181827047EC
:10115000818A21F0080181827047002904D08189A9
:1011600041F40041818170478189C1F30E01818181
:101170007047002904D0818A41F400618182704760
:10118000818A21F4006181827047828A22F0040200
:101190008282828A0A4382827047002904D0818A2F
:1011A00041F0020181827047818A21F0020181822F
:1011B00070470246002012880A4200D00120704782
:1011C0008A05C9430180704770B5002440F66A1251
:1011D000C1F3421301F01F05012606FA05F2012BA7
:1011E0000CD0022B0DD0838A1340090A8E40008850
:1011F00030400BB100B10124204670BD83891340FB
:10120000F3E7038A1340F0E740F66A120A0A012165
:101210009140C943018070470038014000440040BC
:1012200000480040004C00400050004086B0A04EF6
:10123000DFF88082DFF88092DFF880A241F2883BFD
:101240009F4F40E09DF8130000909DF812309DF8EC
:1012500011209DF810109BA005F056FB02E0A5A000
:1012600005F052FB308805F0E7F8414605F037F805
:10127000494604F0FFFF514604F0FFFF03907088D9
:1012800005F0DAF8414605F02AF8494604F0F2FF85
:10129000514604F0F2FF0290DDE9022104A801F0BA
:1012A00099FA029805F0FEF804460D46039805F0F9
:1012B000F9F802460B4694A0CDE9004505F024FB61
:1012C000584602F003FE386880F02000386004A819
:1012D00000F095FF0128C2D1B4E700B587B0022025
:1012E000ADF8080092A00590944801904FF48060FA
:1012F000049001A9924802F02FFB07B000BD47F20D
:10130000305401F043FA8FA005F0FEFA204602F0B7
:10131000DDFDF6E700B587B00520ADF808008DA02B
:101320000590924801904FF480600490844801A990
:101330000C3002F011FBE0E74FF47A75804C01F0BD
:1013400088F801F0A3F8284602F0C0FD01F0EEF99C
:10135000284602F0BBFDFFF7DDFF014619B184A06E
:1013600005F0D2FA02E08EA005F0CEFAFFF7B5FF45
:10137000014619B18FA005F0C7FA02E096A005F06A
:10138000C3FA606802F0BDFBD9E700B587B0012061
:10139000ADF8080098A005909C4801904FF480603B
:1013A0000490674801A9001D02F0D6FAA5E7984D00
:1013B000984F634C6E140121284600F02AFA012848
:1013C00006D03146384600F024FA01280BD014E04C
:1013D00091A005F099FA606802F0EEFC68B992A05D
:1013E00005F092FA09E095A005F08EFA606802F027
:1013F000A0FC10B995A005F087FA142002F066FD54
:10140000D9E700B587B00420ADF8080048A00590E2
:10141000934801904FF480600490494801A9083036
:1014200002F09AFA69E710B5FFF7EBFF04462CB11A
:10143000214660A005F068FA204610BDFFF7A5FF21
:1014400004462CB1214687A005F05EFA204610BD67
:10145000002010BD10B54FF44070FEF73FFF00F0C4
:101460008FF900F000FA00F0BBF900F076FE00F012
:101470002EFBBDE8104001F015BB10B5FFF7EAFFE9
:1014800082A005F041FA03F04BFE014621B183A092
:1014900005F03AFA012010BDFFF7C5FF014621B162
:1014A00088A005F031FA012010BD03F028FEFEE708
:1014B000600000200000C8420000344200004040AC
:1014C0000C0C01400D0A20BBB7BEB3CAAAB6C8CEE9
:1014D000AA25642E256420A3A5524820A3ACBBB73F
:1014E000BEB3CEC2B6C8CEAA2025642E2564A1E61E
:1014F000200D0A0052656164204448543131204572
:1015000052524F52210D0A000D0A20B9E2C7BFCE38
:10151000AA252E3266204C5558A3ACCDC1C8C0CAEE
:10152000AAB6C8CEAA20252E3266200D0A000000D9
:101530004B65795F5461736B000000002D12000849
:10154000280000200AB7A2CBCDD0C4CCF8B3C9B9CB
:10155000A60A00004D7174745F53656E644865613E
:1015600074626561745F5461736B0000FF12000860
:101570004D7174745F53656E644865617462656132
:1015800074C8CECEF1B4B4BDA8CAA7B0DCA3A1CABA
:10159000A7B0DCB4FAC2EB307825580A000000008E
:1015A000B4B4BDA8D0C4CCF8C8CECEF1B3C9B9A6E6
:1015B000A3A10A004B65795F5461736BC8CECEF16D
:1015C000B4B4BDA8CAA7B0DCA3A1CAA7B0DCB4FA62
:1015D000C2EB307825580A00B4B4BDA8B6C1C8A182
:1015E0006468743131B4ABB8D0C6F7C8CECEF1B3AD
:1015F000C9B9A6A3A10A0000436F6E6E6563745F4C
:10160000496E69745F5461736B0000003913000800
:101610000008014000100140B9D2C6F04C4544C852
:10162000CECEF1A3A10A0000B9D2C6F04C4544C801
:10163000CECEF1B3C9B9A6A3A10A0000BBD6B8B4F7
:101640004C4544C8CECEF1A3A10A0000BBD6B8B425
:101650004C4544C8CECEF1B3C9B9A6A3A10A000037
:10166000AF130008436F6E6E6563745F496E6974F3
:10167000C8CECEF1B4B4BDA8CAA7B0DCA3A1CAA796
:10168000B0DCB4FAC2EB307825580A000A20B3F572
:10169000CABCBBAFB3C9B9A6A3A10A004C697465A3
:1016A0004F5320BACBD0C4B3F5CABCBBAFCAA7B0A6
:1016B000DCA3A1CAA7B0DCB4FAC2EB307825580A83
:1016C000000000004170705461736B437265617477
:1016D00065B4B4BDA8C8CECEF1CAA7B0DCA3A1CA78
:1016E000A7B0DCB4FAC2EB307825580A000000003D
:1016F00070B51D4D40F225512846FFF765FD1B4C86
:10170000B8B12846FFF7ECFCC2B2B4F8000440F2CE
:10171000FF31C0F30E0088420BD2B4F80004B4F8D5
:101720000034C0F30E01481C60F30E03A4F800342B
:10173000625440F224412846FFF746FD012812D1A9
:10174000B4F8000440F40040A4F800042846FFF771
:10175000C7FC07A1054804F004FD08B1012000E022
:1017600000200649087070BD00480040200100209C
:10177000434C4F5345440D0A000000003800002040
:1017800038B501210820FFF72CFB2020ADF8000020
:1017900010208DF8030003208DF802000F4C6946DD
:1017A0002046FFF718F90121ADF8001069462046E0
:1017B000FFF711F90221ADF8001069462046FFF746
:1017C0000AF920212046FFF775F901212046FFF78D
:1017D00071F902212046FFF76DF938BD000C014078
:1017E00038B501211420FFF7FCFA0120ADF8000004
:1017F00004248DF8034069460F48FFF7ECF8E00237
:10180000ADF800008DF8034069460C48FFF7E3F897
:1018100038BD70B504460D4629462046FFF736F917
:10182000012801D0002070BD29462046FFF72EF97F
:101830000128F9D0012070BD0008014000100140CE
:1018400008B54FF4A060FEF749FD25208DF8000093
:1018500001208DF801008DF802008DF80300684624
:10186000FEF741FD08BD10B586B001210420FFF749
:10187000B8FA01218803FFF7B4FA4FF40070ADF80D
:10188000140018208DF8170003208DF816004E4C18
:1018900005A92046FFF79FF82115ADF81410042183
:1018A0008DF8171005A92046FFF795F84FF4E130A1
:1018B00001900020ADF80800ADF80A00ADF80C006A
:1018C000ADF810000C20ADF80E00404C01A92046E8
:1018D000FFF726FBFFF7B4FF012240F22551204617
:1018E000FFF7A5FB01212046FFF795FB06B010BDD1
:1018F00010B504462046FFF7EFFB80212046FFF796
:1019000058FC0028F9D010BD2DE9F04107460D46DE
:101910001646002405E0295D3846FFF7E9FF641C00
:10192000E4B2B442F7D340213846FFF742FC002826
:10193000F9D0BDE8F08170B506460D46002430466A
:10194000295DFFF7D5FF641C285D0028F7D14021F1
:101950003046FFF72EFC0028F9D070BD70B5054663
:10196000080ACCB201462846FFF7B6FB802128467C
:10197000FFF71FFC0028F9D021462846FFF7ACFBF3
:1019800080212846FFF715FC0028F9D070BD70B5FE
:1019900004460E4DE1B22846FFF79EFB8021284603
:1019A000FFF707FC0028F9D0204670BD10B5074CA2
:1019B00020212046FFF7FDFB0028F9D02046BDE896
:1019C0001040FFF78DBB00000008014000380140C7
:1019D00008B54FF44070FEF781FC27208DF8000019
:1019E00000208DF801008DF8020001208DF8030021
:1019F0006846FEF778FC08BD10B586B00121880462
:101A0000FFF7FAF901210820FFF7EBF94FF48060A6
:101A1000ADF8140018208DF8170003208DF816007B
:101A2000F84C05A92046FEF7D6FFE114ADF81410D6
:101A300004218DF8171005A92046FEF7CCFF4FF4BE
:101A4000E13001900020ADF80800ADF80A00ADF8D3
:101A50000C00ADF810000C20ADF80E00EA4C01A906
:101A60002046FFF75DFA012240F225512046FFF79C
:101A7000DEFA012240F224412046FFF7D8FAFFF7B0
:101A8000A7FF01212046FFF7C6FA06B010BD38B502
:101A900001210820FFF7A5F94FF48070ADF8000090
:101AA00010208DF8030003208DF80200D54C694604
:101AB0002046FEF790FF01210820FFF792F96115FB
:101AC000ADF8001069462046FEF785FF38BD10B519
:101AD000FFF7DDFFFFF790FFCA4C4FF4007120467F
:101AE000FEF7E8FFA1152046BDE81040FEF7E4BF71
:101AF00070B5C44D4FF4007421462846FEF7DCFF54
:101B00004FF4FA7002F0E2F921462846BDE8704031
:101B1000FEF7D0BF2DE9F04184460D4616461F461C
:101B2000BA4CB4F800046FF30E00A4F80004624647
:101B3000B7A1B54800F0E0FB55EA06001ED03846D4
:101B400002F0C4F9B4F800140020C1F30E0160548F
:101B50002146B1A004F0D8FE04F5806420886FF31C
:101B60000E002080208820F4004020808DB186B1B6
:101B70002946A64804F0F5FA48B902E00120BDE87C
:101B8000F0813146A14804F0ECFA0028F7D001209A
:101B9000F5E73DB129469D4804F0E3FA0028EED070
:101BA0000120ECE73146994804F0DBFA0028E6D042
:101BB0000120E4E770B500244FF400719148FEF76E
:101BC00079FF4FF4FA6002F081F94FF4FA750BE0F7
:101BD0002B46002291A192A0FFF79CFF002805D17F
:101BE000FFF786FF641CE4B20A2CF1D370BD40F607
:101BF000C413002805D0012807D0022809D00020EE
:101C0000704788A285A18AA084E786A283A18BA0C1
:101C100080E784A281A18CA07CE700B59FB00B4631
:101C200002468CA101A804F07FFE41F28833002215
:101C30007AA101A8FFF76EFF1FB000BD00B59FB0ED
:101C40000B460092024688A101A804F06DFE4FF4F5
:101C50007A73002271A101A8FFF75CFFECE700B5E1
:101C600085B0002801D0012200E0002284A168464E
:101C700004F05AFE4FF4FA73002268A16846FFF799
:101C800049FF05B000BDF0B5B9B004460F46154692
:101C90001E46642120A804F059FA14B1012C0FD17A
:101CA00007E03B467AA27BA120A8009504F03CFE09
:101CB00006E03B467BA277A120A8009504F034FE05
:101CC000052E06D220AB324677A102A804F02CFEE6
:101CD00004E020AA79A102A804F026FE4FF47A635A
:101CE0007AA24EA102A8FFF715FF39B0F0BD30B5BA
:101CF000BDB015464FF4FA7400281DD00B460122E2
:101D000076A11FA804F010FE2A4679A101A804F0CC
:101D10000BFE2346002241A11FA8FFF7FBFE48B19E
:101D2000234600223DA101A8FFF7F4FE10B10120D7
:101D30003DB030BD0020FBE70B46002267A11FA885
:101D400004F0F2FD2346002234A11FA8FFF7E2FEB3
:101D5000EEE710B54FF4FA73002230A168A0FFF748
:101D6000D9FEA0B16AA1294804F0FBF908B102200C
:101D700010BD6AA1254804F0F4F908B1032010BD94
:101D800069A1224804F0EDF908B1042010BD00203B
:101D900010BD10B500244FF4FA7300221FA158A003
:101DA000FFF7B8FE00282AD062A1184804F0D9F93C
:101DB00000B1012463A1154804F0D3F910B144F037
:101DC000020401E024F0020462A1104804F0C9F901
:101DD00010B144F0040401E024F0040461A10B48B4
:101DE00004F0BFF910B144F0080401E024F0080445
:101DF00060A1064804F0B5F910B144F01004C3E046
:101E0000C0E00000000C014000480040200100201C
:101E100025730D0A00000000257300004F4B0000E1
:101E2000415400006E6F206368616E6765000000BA
:101E300041542B43574D4F44453D310041542B43B2
:101E4000574D4F44453D320041542B43574D4F446D
:101E5000453D330041542B43574A41503D222573A1
:101E6000222C22257322000041542B43575341500A
:101E70003D222573222C222573222C312C2564002F
:101E800041542B4349504D55583D256400000000F6
:101E900054435000222573222C222573222C2573B3
:101EA000000000005544500041542B434950535406
:101EB0004152543D25642C257300000041542B43AE
:101EC000495053544152543D25730000414C5245F2
:101ED000415920434F4E4E454354000041542B433B
:101EE00049505345525645523D25642C25730000F8
:101EF00041542B43495053544F3D2573000000007B
:101F000041542B4349505354415455530000000051
:101F10005354415455533A320D0A0000535441541E
:101F200055533A330D0A00005354415455533A3433
:101F30000D0A00002B4349505354415455533A3035
:101F40002C0000002B4349505354415455533A310F
:101F50002C0000002B4349505354415455533A32FE
:101F60002C0000002B4349505354415455533A33ED
:101F70002C0000002B4349505354415455533A34DC
:101F80002C00000024F01004204610BD70B504465B
:101F90000D464FF4FA730022AFF2801147A0FFF70D
:101FA000B9FD49A14A4804F0DCF810B1801D0022B7
:101FB00007E0002070BD835CA354222B05D0521C87
:101FC000D2B2AA42F7D3012070BD0020A054FAE794
:101FD00010B54FF4FA7423460022AFF2C0113DA0B1
:101FE000FFF798FD38B123463EA2AFF2D011BDE80D
:101FF00010403DA08EE5002010BD10B54FF47A7062
:1020000001F064FF3BA13C4800F076F9BDE81040C8
:102010004FF4FA7001F05ABF30B5044685B00D4652
:102020001846002C08D02A46AFF21421324800F09E
:1020300063F9012005B030BD052806D2931C024685
:102040002EA1684604F070FC04E0921C30A16846A2
:1020500004F06AFC4FF47A742346002230A16846EB
:10206000FFF758FD234600222EA12846FFF752FD18
:10207000E0E710B500241649B1F800246FF30E0212
:10208000A1F80024B1F8002422F40042A1F80024B1
:10209000B1F800241204FBD5B1F800340022C3F3D8
:1020A0000E03CA5408B10A4C05E020A1084804F008
:1020B00058F800B1064C204610BD000041542B4397
:1020C0004946535200000000415049502C22000064
:1020D0002001002041542B4349504D4F44453D3190
:1020E000000000003E00000041542B43495053457E
:1020F0004E4400002B2B2B000048004041542B4342
:10210000495053454E443D25642C25640000000091
:1021100041542B43495053454E443D256400000033
:102120003E20000053454E44204F4B002B49504465
:102130000000000008B501214020FEF752FE4020BB
:10214000ADF8000010208DF8030003208DF8020088
:1021500069465148FEF73FFC08BD10B5FFF7EAFF9E
:10216000BDE8104040214C48FEF7A4BC08B5402013
:10217000ADF8000048208DF8030069464648FEF798
:102180002AFC08BD08B54020ADF8000010208DF8ED
:10219000030003208DF8020069463F48FEF71BFC50
:1021A00008BD2DE9F041002500243B4F01264021C8
:1021B0003846FEF76BFC0028F9D0282000F0D0FB51
:1021C00040213846FEF762FC01280BD0C4F107001D
:1021D00006FA00F08543641CE4B2082CE7D32846D5
:1021E000BDE8F08140213846FEF750FC0128F9D0C7
:1021F000C4F1070006FA00F0C0B20543EBE770B582
:102200000446FFF7BFFF244D40212846FEF754FC4B
:1022100044F2506000F0A4FB40212846FEF74AFC3F
:102220001E2000F09DFBFFF7A1FF40212846FEF78E
:102230002DFC08B1002070BD40212846FEF726FC89
:102240000028F9D040212846FEF720FC0128F9D0CB
:10225000FFF7A7FF2070FFF7A4FF6070FFF7A1FF53
:10226000A070FFF79EFFE070FFF79BFF2071FFF764
:1022700089FF40212846FEF71DFC20786178E2782E
:102280000844A178114408442179884201D10120F1
:1022900070BD002070BD000000180140F0B503467D
:1022A0000025084600260A2A01D00670F0BD002B42
:1022B0001DD005DA4FF02D0200F8012BC3F1000309
:1022C00042F210724FF00A0793FBF2F454EA050C45
:1022D00006D004F1300500F8015B04FB1233012540
:1022E00092FBF7F2002AEFDC06700846F0BD3022C0
:1022F000027046700846F0BD0FB430B585B0054693
:102300000AA800900EE05C2914D025292CD0521C7C
:1023100028460992FEF7E0FE80212846FEF749FF95
:102320000028F9D0099A11780029ECD105B030BC09
:102330005DF814FB521C099210786E280CD072289C
:1023400002D0521C0992E7E70D212846FEF7C4FE91
:102350000998401C0990DFE70A212846FEF7BCFED9
:102360000998401C0990D7E7521C099210786428FC
:1023700019D0732802D0521C0992CDE7009810C8DA
:10238000009009E02846FEF7A7FE80212846FEF7C8
:1023900010FF0028F9D0641C21780029F2D1099897
:1023A000401C0990B8E7009808C800900A2201A9CB
:1023B0001846FFF773FF01AC09E02846FEF78CFED4
:1023C00080212846FEF7F5FE0028F9D0641C21780C
:1023D0000029F2D10998401C09909DE770B5064686
:1023E0000024864D304655F8241003F0BAFE18B983
:1023F000641CE4B2082CF5D3814B02200121202279
:102400001D1F082C08D2DFE804F004080C10141873
:102410001C201A602960286070BD2A60196028603D
:1024200070BD2A602960186070BD1A60196028604C
:1024300070BD1A602960186070BD2A60196018604C
:1024400070BD1A601960186070BD2A60296028602C
:1024500070BD10B56BA004F057FA69484FF4807155
:102460001438FEF727FBFFF7A5FB0020FFF7BFFBA3
:102470006BA16EA0FFF7D1FB0028F9D00020FFF779
:10248000EEFBBDE810406BA004F03EBA10B505238A
:102490006DA26FA10020FFF7F6FB0028F7D0FFF731
:1024A00097FD0028FBD0BDE8104076A004F02CBAC0
:1024B00054A004F029FA52484FF480711438FEF702
:1024C000F9FA76A004F020FAFFF774FB0020FFF77A
:1024D0008EFB53A155A0FFF7A0FB0028F9D00020E8
:1024E000FFF7BDFB052358A259A10020FFF7CBFB46
:1024F0000028F7D0FFF76CFD0028FBD06DA004F09A
:1025000003FA72A004F000FA754F764DDFF8D88117
:10251000764EB5F80004000422D500240BE0295DB6
:102520003846FEF7D9FD40213846FEF742FE002826
:10253000F9D0641CA4B2B5F80004C0F30E00A042A8
:10254000EDD8B5F800046FF30E00A5F80004B5F857
:10255000000420F40040A5F800046248FFF73EFFA5
:10256000B6F80004000422D500240BE0315D40469B
:10257000FEF7B2FD40214046FEF71BFE0028F9D0D1
:10258000641CA4B2B6F80004C0F30E00A042EDD85B
:10259000B6F800046FF30E00A6F80004B6F80004C5
:1025A00020F40040A6F800045048FFF717FF134836
:1025B000001F00780028ACD0FFF71FFDFFF7C9FB14
:1025C0000028FBD0042813D149A004F09DF914A1E0
:1025D00016A0FFF722FB0028F9D005231AA21CA1A0
:1025E0000020FFF750FB0028F7D049A004F08CF939
:1025F000FFF7EEFC0028FBD08BE700003C0000203A
:10260000140C01400D0AD5FDD4DAC5E4D6C320452B
:10261000535038323636202E2E2E2E2E2E0D0A00F6
:1026200077796868787874747873000070646336BA
:10263000363600000D0AC5E4D6C3207769666920E6
:10264000CDEAB1CF0D0A0000313838330000000068
:10265000613144723270704E7249632E696F742D0D
:1026600061732D6D7174742E636E2D7368616E6766
:102670006861692E616C6979756E63732E636F6D25
:10268000000000000D0AC1ACBDD3207365727665F1
:102690007220B3C9B9A6A3A10D0A00000D0AD5FD89
:1026A000D4DAC5E4D6C32065202E2E2E2E2E2E0D74
:1026B0000A0000000D0AC5E4D6C320455350383245
:1026C000363620CDEAB1CF0D0A0000000D0ABFAAB0
:1026D000CABCCDB8B4AB2E2E2E2E2E2E0D0A000065
:1026E0000048004022050020003801402001002061
:1026F0000D0AD5FDD4DAD6D8C1ACC8C8B5E3BACD79
:10270000B7FECEF1C6F7202E2E2E2E2E2E0D0A004D
:102710000D0AD6D8C1ACC8C8B5E3BACDB7FECEF164
:10272000C6F7B3C9B9A60D0A0000000000B597B0FE
:1027300058224C4901A803F0F0FC4BA004903C2027
:10274000ADF81C0001208DF81E0054A0119059A076
:10275000149004208DF80C00614801AA01686148BA
:1027600003F0BDF8C1B25F4803F095FC5E48B0F8D5
:1027700000140904FBD5B0F8001421F40041A0F8BE
:1027800000145AA004F0C0F817B000BD10B5C8215D
:10279000544803F088F9C1B2BDE81040514803F035
:1027A0007ABCF0B5064687B00F46104603F07AFEB5
:1027B00004460D46384603F075FE02AA33C230784F
:1027C00000900190F378B2784D494E4804F0ACF88F
:1027D00007B0F0BD70B58AB0FFF7E3FF00244948A9
:1027E00003F0DDFC05464FF4967631463D4803F094
:1027F000ADFC45A007904348CDE905050798CDE914
:1028000002047B20CDE90040002304941A4631469F
:10281000344803F003FBC1B2324803F03CFC0AB079
:10282000002070BD70B586B0054600240494059460
:102830004FF4967631462B4803F088FC039503A8A5
:10284000CDE90104012213460092002231462548B9
:1028500003F07EFBC1B2234803F01DFC06B000204C
:1028600070BD00002C720008746C677C7365637522
:1028700072656D6F64653D332C7369676E6D657449
:10288000686F643D686D6163736861312C74696D54
:10289000657374616D703D3939397C0064657669A2
:1028A000636530303126613144723270704E724946
:1028B00063000000303046443244444135324142E6
:1028C000303543353946423841374343453931384D
:1028D000444532313338344339304133000000004D
:1028E0005C00002024090020200100206D71747418
:1028F00020C1ACBDD3B3C9B9A6A3A10A0000000092
:10290000E0720008500A00202F7379732F61314460
:10291000723270704E7249632F64657669636530F8
:1029200030312F7468696E672F6576656E742F700D
:10293000726F70657274792F706F7374000000008D
:102940001748016841F0807101601648002141601C
:10295000016841F00101016070471248406870470A
:1029600001B50022FFF7ECFF0F4810490068B0FBEB
:10297000F1F300984343FFF7F0FF0146FFF7EDFF47
:102980008842FBD003D9A0EB01010A4403E06FEABF
:10299000010101440A4401469A42EFD308BD0000F8
:1029A000FCED00E0001000E00000002040420F00BD
:1029B00008B501211020FEF714FA2420ADF800001C
:1029C00000208DF8030069463948FEF704F808BD79
:1029D00070B590B001210846FEF7F8F901214802D0
:1029E000FEF7FFF9334E3046FDF798FE324805906A
:1029F0003248069000240794022508950994802106
:102A00000A9148000B9080000C9020200D9000024D
:102A10000E900F9405A93046FDF7F7FE01213046D0
:102A2000FDF71DFF009401208DF804008DF80500CE
:102A30004FF46020029003948DF810501E4C6946AC
:102A40004C3C2046FDF7D2FC4FF44040FEF74CF9D9
:102A50000523012202212046FDF752FD0523022213
:102A600019462046FDF74CFD01212046FDF7F2FCFA
:102A700001212046FDF7E2FC2046FDF702FD20463D
:102A8000FDF704FD0028FAD12046FDF706FD20469B
:102A9000FDF708FD0028FAD101212046FDF709FDC8
:102AA00010B070BD10B5FFF783FFBDE810408FE791
:102AB00000080140080002404C2401406000002052
:102AC00010B500244FF480712A48006802F0A5FC7C
:102AD00029490860002807D0086800EBC40040605E
:102AE0000060641C202CF7D310BD234A126802EB4F
:102AF000C10109684A68426001604A681060486024
:102B00007047D0E900121160D0E900215160002126
:102B1000416001607047002017490A6802EBC0015C
:102B20004B688B4201D1012100E0002121B1401C02
:102B30002028F3D30020704702EBC00040687047A4
:102B4000014600200C4A126802EBC102516801E004
:102B5000401C49688A42FBD1704710B5002300240D
:102B60001846FFF7EDFF04445B1C202BF8D32046EA
:102B700010BD000010010020640000200EB50820E8
:102B80000090FA4D4FF0FF3633466A4601A9E868D7
:102B900001F065FD0028F7D100980828F4D10198CC
:102BA0000028F1D000F060FBDDE90110884700F05B
:102BB0005BFBE9E700B587B0182101A803F0C6FA6E
:102BC000AFF2470001904FF434700490E8A00590F4
:102BD0000020ADF8080001A9E84800F0BDFE07B0EC
:102BE00000BDF8B5E6480025056045608560C56014
:102BF000DE4EB5614FF4E0710F46E248006802F026
:102C00000CFC0446ECB13946204603F09FFA3461CF
:102C10007461258121461C34012020810C602146ED
:102C2000401C80B21C341028F7D30820CF4A002360
:102C300000900C321021184601F08BFB20B1D248D5
:102C4000F8BDD148001FF8BDFFF7B4FF10B1CE4862
:102C5000401CF8BD0020F8BD2DE9F04F0024671E90
:102C6000BC464FF01008C14600260169C160017AD8
:102C700001F00F05DFF808B3BC4A4FF0030E5BF814
:102C80002510D2F818A0BEEB517F62D141F000416F
:102C90004BF8251021F07F420023B94951F823B0A9
:102CA0002BF07F4131B3AB4224D0BEEB9B7F21D1CF
:102CB000914206D3B1FBF2FB02FB1B1BBBF1000FE1
:102CC00009D0914216D2B2FBF1FB01FB1B2BBBF1E9
:102CD000000F08D00EE0B1FBF2FBBB450AD2B1FBFE
:102CE000F2F7984606E0B2FBF1FBE34502D2B2FBF5
:102CF000F1FC99465B1C9BB2102BCED39B49B8F1DB
:102D0000100F0A6919D05146C8EBC80302EB8302C1
:102D100006E0CB681E440B891589AB4202D00968D6
:102D20000029F6D1A9B309698A1B0169B2FBF1F345
:102D300001FB1322891AC16036E0B9F1100F33D0BC
:102D40000021C160C9EBC90102EB8104D4F800A0E5
:102D50002DE00222B2EB517F26D141F000414BF829
:102D6000251051460CE00A6903699A4207D10A7A94
:102D700002F00F025BF82220BEEB927F02D00968BE
:102D80000029F0D129B10022C2600C46D1F800A080
:102D90000DE009E0DAF80C10C268914207D8511A28
:102DA000C1605446DAF800A0BAF1000FF2D1C0F8C1
:102DB00000A0BAF1000F05D0DAF80C10C268891A29
:102DC000CAF80C1024B1206002210171BDE8F08F17
:102DD00066498861F8E770B50022644CA169002952
:102DE0001BD001E00A4609688142FBD10B681BB188
:102DF000DD68CE683544DD6082B10B681360002267
:102E00000A6001220A71007A5D4900F00F0051F852
:102E1000202022F0004241F8202070BD0A68A26103
:102E2000EDE77CB5514DAC6928E02068A861A06948
:102E3000009060690190002308226946E86801F06B
:102E400039FC607920B1012811D0022813D014E098
:102E5000204600F0F6F920894FF6E071884202D250
:102E60001030208109E000F00F00208105E02046AD
:102E7000FFF7F2FE01E001202071AC69002C02D0C6
:102E8000E0680028D1D07CBD10B5384880690028A2
:102E900005D0C168491EC16001D1FFF7C2FF002003
:102EA00010BD0021314A906906E08379012B0AD0D8
:102EB000C3681944906000680028F6D128B1C06842
:102EC0000844106070475060F8E74FF0FF307047DB
:102ED00070B500230E68026814E0D468CD68AC4277
:102EE00005D82B1BCB6013461268002AF5D10A6067
:102EF0001AB1D468CD68641BD46033B119600B4635
:102F0000314636680029F0D170BD0160F7E770B531
:102F1000164C616800291DD02268904200D91046E5
:102F2000CB680025834202D3181AC8600BE0101A40
:102F3000C860A06838B10560A1690C48001DFFF7A2
:102F4000C7FF6068A061A069C06808B9FFF769FFA2
:102F50006560A56070BD0246002004498969CB68A0
:102F60001844914212D00968F9E700006800002077
:102F70005377745F5461736B000000009C00002065
:102F80007C0B0020100100200B03000270472DE98C
:102F9000F05F8046DDE90AB60C9F0D4691469A46E1
:102FA000B8F1000F07D04DB1012D07D0022D05D08B
:102FB000AA48BDE8F09FA948401EFAE7B9F1000F02
:102FC00008D0BAF1000F08D056B1012E08D0A3489E
:102FD0000F30EEE7A148801EEBE7A048401CE8E771
:102FE000012F03D017B19D481030E2E702F0ECFA50
:102FF0009B494C69B4B122684A6102F0EDFAC4F809
:1030000018906571C4F8108000202060E060C4F85A
:1030100014B0A671E771012020712089AAF8000080
:103020000020C6E702F0D8FA8C48801CC1E72DE9E1
:10303000F04106460025DFF824824FF6F07008F1D3
:103040000308864202D34046BDE8F08102F0BCFA94
:10305000074606F00F008249C0EBC000096901EB8A
:1030600080042089B04204D0384602F0B5FA4046C8
:10307000EAE7E179012923D16179012920D1794B4E
:1030800000F00F0153F8210040F0804043F8210088
:1030900022690A21B2FBF1F601FB162282B9227ADB
:1030A00040F0005002F00F0243F822002269B2FB08
:1030B000F1F1227A61F3170002F00F0243F82200C7
:1030C000207950B101280ED0022809D0634D0C356B
:1030D000384602F081FA2846B6E7604D2D1DF7E725
:1030E0002046FFF778FE2046FFF7B6FDF0E72DE912
:1030F000F04105460024594F4FF6F070FF1C854201
:1031000001D33846A0E702F05FFA064605F00F004B
:103110005349C0EBC000096901EB80000189A94255
:1031200004D0304602F058FA38468DE7017951B1A3
:1031300001290BD002290CD0484C0C34304602F047
:103140004BFA204680E7454C241DF7E7434C0B34EF
:10315000F4E7FFF740FEF1E72DE9F04105460E46A2
:103160000024DFF8F8804FF6F07008F1030885427C
:1031700001D3404668E796B102F026FA074605F00B
:103180000F003749C0EBC000096901EB80000189DD
:10319000A94207D0384602F01FFA404654E72F48AC
:1031A0000E3051E7027952B1012A0BD0022A0CD01D
:1031B0002A4C0C34384602F00FFA204644E7274CDC
:1031C000241DF7E7254C0B34F4E7FFF7C4FE30600D
:1031D000F0E72DE9F04105460024DFF880804FF646
:1031E000F07008F10308854201D340462CE702F055
:1031F000EBF9074605F00F001949C0EBC00009695B
:1032000001EB80063089A84204D0384602F0E4F988
:10321000404619E7317951B101290ED0022909D070
:103220000E4C0C34384602F0D7F920460CE70B4C14
:10323000241DF7E73046FFF7CEFD304600F001F8D9
:10324000F0E707494A690260486100210171007A8C
:10325000044A00F00F0042F82010704702030002F9
:10326000680000207C0B0020344903C970473448B3
:103270004FF47A710068B0FBF1F0704710B5411C53
:1032800007D04FF47A72A0FB0201002302F014FF72
:1032900010BD4FF0FF3010BD10B54FF47A72A0FB97
:1032A0000201002302F008FF10BD2DE9F0470E4691
:1032B000174600281CD0DEB1D7B1D0E900892048DC
:1032C000006803F0BEF800221E4B03F046F80446E7
:1032D0000D464846414603F0C1F822462B4603F00E
:1032E0003CF803F0C7F8386031600020BDE8F08793
:1032F0001548FBE72DE9F0470E46174600281BD07E
:10330000D6B1CFB1D0E900890D48006803F099F833
:1033100000220E4B03F021F804460D464846414674
:1033200003F09CF822462B4603F017F803F0A2F8AE
:10333000386031600020D9E70348D7E7D800002083
:103340000000002000408F401000000280842E41C9
:1033500030B500200021FE4A958814686A1802F0F2
:103360001F0204EBC2025368934209D0303B59B1AB
:103370000A469B6B02EB431208B1904200D91046FB
:10338000491C2029EAD330BD2022F2E7FEE770B5C0
:1033900004460D462079400711D504F12800064661
:1033A000FFF7AFFBA08820F004002946E58040F03D
:1033B0000400A0803046BDE87040FFF796BBE58072
:1033C00070BDF0B4024601F01F034809002B00D184
:1033D000401E916B01F078410143DD4C2079184487
:1033E00000F01F0060F3DF619163216801EBC0030F
:1033F00002F130015868984203D1F0BC184600F041
:1034000053BF3038946B866B24F0784726F07845AC
:10341000BD420BD87D1B04F0784425439563406B77
:10342000303800F130049C42ECD10AE0836B926B9F
:1034300023F0784322F078429A1A06F078431A4330
:103440008263F0BC303000F02FBF30B4826BD10EFD
:10345000BF4B1B6803EBC103416B994209D08B68DA
:1034600022F0784223F07844224403F078431A4350
:103470008A6030BC303000F019BF2DE9F0410027E0
:10348000B3490879401C00F01F008880096801EBEF
:10349000C0067468B44249D0303C3DE0A588A06BBA
:1034A000400103D0A06B401EA06339E004F130005E
:1034B00000F0FCFE28070BD5A08820F00800A080B3
:1034C00004F1280000F0F2FE0020A061E06115E0A8
:1034D000680504D5A08820F48060A0800EE0A804D0
:1034E00008D504F1280000F0E1FEA08820F4005087
:1034F000A08003E0A08820F02000A080A80709D4C5
:10350000A08840F00400A080E18804F12800FFF7C3
:10351000ECFA01277468303C04F13000B042BDD1B0
:10352000002F03D0BDE8F04102F096B8BDE8F0816D
:10353000C10601D587A07047410701D587A0704714
:10354000810601D587A07047010705D5400601D542
:1035500086A0704788A07047810701D588A0704772
:10356000810405D5400601D587A070478BA0704720
:103570008DA0704770B5764EC0EBC000403E00EBAA
:103580004004F16801EB8405EB681868B0F1CC3FAA
:103590000CD088A003F0B8F9F06800EB8400416A11
:1035A00086A003F0B1F94FF0FF3070BD181D51F83F
:1035B00024104FF0CA3400E0001D814202D9026895
:1035C000A242F9D0A968C01A081A70BDF0B587B038
:1035D00078A003F099F9824803F096F975A003F0FA
:1035E00093F980A003F090F972A003F08DF97E4862
:1035F00003F08AF96FA003F087F97AA003F084F949
:103600000025534E403E3DE0C5EBC500F16800EBA0
:10361000400001EB80042079C00732D165A003F09F
:1036200073F92069FFF7A6FF0246A088FFF780FF25
:10363000E3682768A16CCDE9037302920591A16844
:10364000CDE90001E38869482269616A03F05CF909
:10365000A06940B157A003F057F9A069C18864A0E0
:1036600003F052F907E053A003F04EF94FF6FF7153
:103670005FA003F049F94FA003F046F959A003F009
:1036800043F96D1C30698542BED307B00020F0BD00
:103690002DE9F0412E4D5420403D2C69641C4443DB
:1036A000554E2146306801F0B8FEE860534F0028BF
:1036B0004CD0214602F04AFD05F128004060006030
:1036C00008304060006008304060006000244FF027
:1036D0000108C4EBC400E96800EB400001EB800185
:1036E000A1F804800C611A482831103800F0DCFD84
:1036F000641C0F2CEDD94FF00008C5F82480286910
:10370000E968C0EBC00000EB400001EB800010490D
:103710002039086004610A6811209080096820201F
:10372000C880FFF7CDF94FF480710D46306801F085
:1037300074FE044620006CD0294602F007FD0448C0
:103740000460A0F804800020646059E05FE060E05D
:10375000C400002052756E6E696E67005265616428
:103760007900000044656C617900000050656E646A
:1037700054696D654F75740050656E6400000000FB
:1037800053757370656E6400517565756550656E2F
:103790006454696D654F757400000000517565755E
:1037A0006550656E64000000496D706F73736962E7
:1037B0006C6500005B4552525D200000435552523B
:1037C000454E54207461736B2025732073746163BC
:1037D0006B206F766572666C6F77210A00000000BF
:1037E000207400080A0000009C730008A4740008FC
:1037F0003078252D377800001001002000020003EA
:103800002460401C083420289ED300208EE63846D1
:103810008CE638468AE62DE9F05F80460D464FF08B
:10382000FF39B8F1000F0BD065B1286960B1286885
:1038300060B1A988FD4A1F290AD91046BDE8F09F4A
:10384000FB48FBE7FB48F9E7FB48F7E7FB48F5E7F0
:1038500004D1FB49884201D01046EFE7F949FA4A02
:10386000E868511A884202D9F1481930E6E710B9E0
:103870004FF43470E8600821E86801F0FFFBE8606D
:10388000B0F5987F02D2EA48401ED7E701F09CFECF
:1038900082460026ED4FDFF8B8B310E0DBF80400F5
:1038A000A0F1280400F002FDE94804F128010838DD
:1038B00000F0F3FCE168386801F0D7FDE660E44809
:1038C00000F0FEFC0028E9D0E148083800F0F8FCE0
:1038D00010B1D74C0A343AE0DD4808384068A0F10E
:1038E000280400F0E3FC504601F076FED4F810A066
:1038F0000822E968386801F098FD074638001CD0B6
:103900003A465046E96801F0C4FE2060A86820628B
:10391000E760E868A060A661E6610220A080A88850
:10392000E08028686061C4F83C90A6642869606201
:103930002665C8F800A0002080E701F045FE824619
:10394000C34804F12801083800F0A7FCC14C5046D8
:1039500001F042FE204671E770B504462046FFF7AD
:103960005AFF00282AD1BA4D2068383DC0EBC0006C
:10397000E96800EB400001EB800401F025FE0646FB
:10398000A08820F0020040F00400A080E18804F14B
:103990002800FFF7AAF8FFF7BEF805F12001283844
:1039A0004860EA695AB12A884AB90968814206D052
:1039B000304601F011FE01F04DFE002070BD304692
:1039C00001F00AFE002070BD00B587B0182101A8E3
:1039D00002F0BCFB9A4801904FF4A06004909EA0B6
:1039E00005901F20ADF80800994801A92438FFF779
:1039F000B3FF0028FFD107B000BD95481838006814
:103A0000002801D0006970478948704790481838ED
:103A10004068002801D00069704785487047002041
:103A20008B4918390968002900D0486A704710B5D9
:103A3000874C183C2068C0680068B0F1CC3F09D0C2
:103A4000AFF2902002F060FF20680269416A85A011
:103A500002F05AFF6068C2680168914203D9806829
:103A60001044884213D2AFF2B42002F04DFF6068D8
:103A70000269416A85A002F047FFAFF2C82002F058
:103A800043FF6068C268016889A002F03DFF60687A
:103A9000944C018A227804EB42025180416A2078DA
:103AA000202204EB4010163002F037FB2078002172
:103AB00004EB401080F835102078401CC0B2207014
:103AC0000A2804D12170607840F08000607060485E
:103AD00038388068002802D0BDE81040004710BD8B
:103AE00010B54FF4AB717F4802F030FB7D490A20DE
:103AF0004870AFF2C50156483838416000218160F6
:103B000010BD2DE9F04706464FF0FF39DFF8408140
:103B1000A8F13808D8F81400864203D144480D3083
:103B2000BDE8F087D8F81800864202D140481A3024
:103B3000F6E7D8F81000864201D33D48F0E701F0DF
:103B400043FD0746C6EBC600D8F80C1000EB40005A
:103B500001EB8004A588E80706D0354CE41C384604
:103B600001F03AFD2046DBE7E8064FF0000A04D5F5
:103B7000B8F8000008B1A8F800A0680708D504F15B
:103B80002800FEF7BEFFA08820F00400A08009E016
:103B900005F0080005F40051084303D004F12800A3
:103BA00000F084FB15F0600F02D02046FFF74DFCBB
:103BB000A08820F0020040F00100A080C4F83C90F2
:103BC000C4F848A0FEF7A7FFDFF884902838A9F1D1
:103BD0001809C9F8040020794FF00105C00623D563
:103BE00004F128011A4800F05FFBD8F81000D8F85B
:103BF0000C10C0EBC00000EB400001EB8000C9F8E6
:103C000000000661D9F80010A0888880D9F800006B
:103C1000E168C160616A4162A580384601F0DCFC60
:103C200001F018FD00207BE75EE0000003020002C7
:103C30000702000201020002050200020402000263
:103C40008D330008181100200050002010010020C2
:103C5000BC0000200002000349646C65436F72657C
:103C60003030300043555252454E54207461736BCE
:103C70002049443A2025733A256420737461636BAC
:103C8000206F766572666C6F77210A004849474855
:103C9000455354207461736B2049443A2025733A8C
:103CA0002564205350206572726F72210A00000053
:103CB00048494748455354207461736B20537461DD
:103CC000636B506F696E7465723A20307825782086
:103CD000546F704F66537461636B3A203078257867
:103CE0000A000000BC0B0020A58004F12801FA485E
:103CF00000F0D3FAF948E168006801F0B6FBC4F8B7
:103D00000CA0384601F068FC002009E770B5F24DC0
:103D1000C0EBC000303D00EB4000E96801EB8004DF
:103D20006169206A8847002028802069BDE87040CA
:103D3000E7E670B50F2801D9E94870BDE64EC0EB43
:103D4000C000303E00EB4000F16801EB800401F060
:103D50003BFC0546A088C10702D0E14CE41C03E00F
:103D6000810706D4DE4CA41C284601F035FC204611
:103D700070BD20F00200A08042F22A41084216D114
:103D800040F00400A080E18804F12800FEF7ADFEB9
:103D9000F06930B1284601F01FFC01F05DFC002005
:103DA00070BDFEF7B8FECC49283810394860284667
:103DB00001F012FC002070BD2DE9F0410546C64E11
:103DC000303E7069854202D1C5480D301EE5B069AC
:103DD000854202D1C2481A3018E53069854201D3C4
:103DE000BF4813E5C5EBC500F16800EB400001EBEF
:103DF000800401F0E9FB0746A088C10702D0B84C57
:103E0000E41C09E0810702D5B54C641C04E0C1063E
:103E100007D5318829B1B34C384601F0DDFB204687
:103E2000F4E4400707D504F12800FEF76AFEA088F5
:103E300020F00400A080A08840F00200A080A648E6
:103E4000103800680069A84206D1384601F0C4FB6A
:103E500001F002FC0020D9E4384601F0BDFB00204F
:103E6000D4E470B59C4C103CA4F120022068126987
:103E70000169914201D39A4870BD0079400701D48D
:103E8000002070BD01F0A0FB05462068C088FEF749
:103E900057FE012814D92068283000F007FA20685E
:103EA000818841F0040181802068C1882830FEF7B4
:103EB0001CFE284601F090FB01F0CEFB002070BDF7
:103EC000284601F089FB8648093070BD70B506466A
:103ED00001F0C4FC10B18348083870BD7E4830380A
:103EE000008810B17E48C01D70BDEEB101F06CFBC2
:103EF0000546794C103C20682830FEF702FE206809
:103F0000818821F00401818031462068FFF759FA49
:103F10002068818841F020018180284601F05CFB07
:103F200001F09AFB002070BDBDE8704099E770B5C4
:103F300069494FF6FF7530390A69904201D3284626
:103F400070BDC0EBC000C96800EB400001EB80040D
:103F500001F03AFB2179C90703D001F03DFB284667
:103F600070BDE48801F038FB204670BD2DE9F041BA
:103F70000D461F2D02D95A48001F47E456493039D3
:103F80004A69904202D156480D303FE48A69904216
:103F900002D153481B3039E40A69904201D350489A
:103FA00034E4C0EBC000C96800EB400001EB8004C2
:103FB00001F00AFB0746A088C10705D0384601F08A
:103FC0000BFB4748C01C21E400F0040686B104F155
:103FD00028008046FEF795FDA08820F00400E580CB
:103FE00040F00400A08029464046FEF77EFD00E038
:103FF000E580384601F0F0FA0EB101F02DFB00200B
:1040000004E401463448103800680069AEE72DE941
:10401000F04107460E4615462F481038046804F153
:1040200028008046FEF76DFDA08820F00400414680
:104030003043A080384600F037F9681C09D0A088CA
:1040400040F04000A08029462046BDE8F041FFF73F
:10405000B8B9BBE670B504460D4604F12800064623
:1040600000F024F9A088A843A080400606D5204689
:10407000FFF7EBF9A08820F04000A080A08881071E
:1040800008D440F00400A080E1883046BDE87040CC
:10409000FEF72BBD70BD10B501F096FA0E4A303A0E
:1040A0001188491C1180BDE8104001F095BA10B587
:1040B00001F08AFA084A303A118819B1491E89B2CA
:1040C000118019B1BDE8104001F086BA01F084FA00
:1040D000BDE8104001F0C0BAB4000020100100207B
:1040E00007020002150200032DE9F04107460C46C5
:1040F000002C05D076490869874204D3754865E6E7
:104100007448801F62E6C7EBC700C96800EB400037
:1041100001EB800501F058FA06462879C00705D062
:10412000304601F059FA6B48C01C4FE62868E0643D
:10413000A888A084E888E084A8682064E8686064AF
:10414000D5E91012E86BC4E90D122063A86CE06396
:10415000A86908B1C08800E01420A062E86908B12D
:10416000406800E00F20E06227621F222046696A53
:1041700002F009F80027E777D5E90210084420F09B
:104180000700A064E16C401A2065636C1868B0F108
:10419000CC3F08D0781E60650120A065304601F054
:1041A0001BFA002012E6181D4FF0CA3C00E0001D6B
:1041B000814202D902686245F9D0A968C01A081A7A
:1041C0006065A765EAE770B50C46002C05D040494C
:1041D0000A69904204D33F4870BD3E48801F70BDBD
:1041E000C0EBC000C96800EB400001EB800501F0A6
:1041F000EBF9AA88D10704D001F0EEF93548C01CCC
:1042000070BD226001F0E8F9002070BD70B5044671
:104210000D460A2C00D30A3C9DB101F0D5F90646A3
:104220002D4800EB44014988296000EB4411163108
:104230002022281D01F071FF304601F0CDF9002049
:1042400070BD2448801F70BDFFF7C0B92048C06909
:1042500070471F4820304068002801D0006970472F
:104260001C48704710B51A490A69904201D30020D2
:1042700010BDC0EBC000C96800EB400001EB80043A
:1042800001F0A2F92179C90703D001F0A5F90020B6
:1042900010BD01F0A1F9606A10BD42684A60086073
:1042A00042681160416070470068F6E7D0E900128B
:1042B0001160D0E900215160002141600160704728
:1042C0004168814201D10120704700207047000001
:1042D0008400002007020002BC0B002010B5084833
:1042E000D0E902134A1C43F10001C0E90221FFF7A3
:1042F000C4F8BDE81040FEF7C7BD0148006870472C
:10430000D000002070B5F9484FF4DC7421460068F5
:1043100001F083F8F64D2860C8B1214601F016FF80
:10432000281D406000600024064604EB4400296814
:1043300000EBC40001EB80014C811C31306800F0BF
:104340004CFB641CA4B20A2CEFD3002070BDE948DA
:1043500070BD2DE9F0470D4608989046011D8FB2BB
:10436000B8F1000F07D04FF6FB71884206D9E1483B
:10437000801CBDE8F087DF480B30FAE7DDB1D0B133
:10438000DA4C05FB07F1206801F047F806463000DB
:1043900014D001F019F98146D548001D00F024FB26
:1043A00078B1484601F018F93146206801F05DF80F
:1043B000D048C01CDDE7CF480C30DAE7CD48401CC0
:1043C000D7E7CB48001D4468D4E900010860D4E970
:1043D0000010486000201C3CE580278126600121F8
:1043E000A18020826582A081E08104F114014960EE
:1043F0000960083149600960083149600960484630
:1044000001F0EAF86089C8F800000020B1E710B5B3
:104410000A2802D3B7480D3010BD49B142B1106827
:1044200048B15BB101F01AFA40B1B248173010BD83
:10443000B0480E3010BDAF480F3010BD002010BD89
:1044400010B50A2802D3AB480D3010BD41B1106839
:1044500048B15BB101F002FA40B1A648083010BD86
:10446000A448113010BDA348123010BD002010BD6B
:104470002DE9F04104468C4617461E461CF0030009
:104480004FF000020BD0012812D003281AD09AA0B6
:1044900002F03AFABDE8F04199A002F035BAA089DD
:1044A000E388411C994201D1A28113E0A18111E06E
:1044B000A08918B1401EA081A0890BE0E088401EB1
:1044C000A081F9E7E089E388411C994201D1E281AA
:1044D00000E0E1812189226800FB01255FEACC70C0
:1044E0000BD039462846326801F017FE20892D1F6F
:1044F000284431680160BDE8F081281F0844046841
:1045000029462246384601F008FE3460F3E72DE9DB
:10451000FF5F0446DDF838A00F469946002507F0F6
:10452000010601F051F88046714904EB440000EBAC
:10453000C400096801EB8004A08810B1F80703D01B
:104540000BE06C4D093585E02089D9F80010001F7B
:10455000814202D2674D1E357CE0F80708D02089E1
:10456000D9F80010001F814202D9624D143571E064
:1045700004EB4601088AE8B1401E08824B463946E2
:104580002046029AFFF774FFEEB3002004EBC00050
:10459000143000F029FAB8B3002E54D04FF00000C8
:1045A00004EB4000008A00F1010081B24ED14FF0CF
:1045B00001004CE0BAF1000F05D05948008850B115
:1045C0004C4D6D1D46E0F80702D04A4D153541E0CF
:1045D000484D1C353EE05348D0F800B004EBC6000F
:1045E000143052464FF40051FFF711FD404600F0E1
:1045F000F3FF01F031F800F0E7FF8046BBF804005C
:104600004106BBD501E007E008E020F04000ABF830
:104610000400384DAD1D1DE00120B7E78EB100202C
:1046200004EBC000806928384FF40051FFF712FDF9
:10463000404600F0D1FF01F00FF8002004B0BDE8C3
:10464000F09F0120ECE74FF00100A9E7002004EB08
:1046500040000182404600F0BFFF2846EEE7F8B573
:1046600007460D4616461C4623463246294638461E
:10467000FFF7CDFE002806D1002133462A463846F2
:104680000094FFF744FFF8BD7FB582B006460D46A3
:104690001C46234604AA29463046FFF7D1FE0028CF
:1046A00006D1012104AB2A4630460094FFF72FFFC4
:1046B00006B070BD7FB582B006460D461C46234647
:1046C00004AA29463046FFF7BBFE0028F0D103219B
:1046D00004AB2A4630460094FFF719FFE8E71FB500
:1046E00002AAFFF7BCFF04B010BD000010010020BB
:1046F000E4000020010600025B4552525D200000EC
:10470000696E76616C6964207175657565206F707E
:1047100065726174652074797065210A000000007B
:1047200084000020A40000201FB50199002904D0B6
:10473000042201A9FFF7BEFFD5E7AF48D3E71FB5B5
:104740000199002904D0042201A9FFF79DFFCAE7BF
:10475000A948C8E72DE9F0470446894617460025D1
:104760000A2C01D3002004E6B9F1000F05D037B1BF
:1047700001F074F818B10020FBE50020F9E500F025
:1047800023FF80469D4904EB440000EBC400096808
:1047900001EB8006B08808B3484600F05BFD054693
:1047A00028001BD1D7B1964804683A464FF400510F
:1047B00006F12400FFF72BFC404600F00DFF00F04F
:1047C0004BFF00F001FF8046A088410603D520F092
:1047D0004000A08002E0256D00202065404600F0EA
:1047E000FBFE2846C5E52DE9F04104460E46174676
:1047F0000A2C02D38048C01D7DE66EB100F0E4FEB5
:1048000005463946304600F045FD40B1284600F0E7
:10481000E3FE794809306EE6774808306BE6774961
:1048200004EB440000EBC400096801EB8004A0889D
:1048300048B104F1240000F0D7F850B1284600F048
:10484000CBFE002057E6284600F0C6FE6A4808382E
:1048500051E6A46A283C4FF400512046FFF7FAFBCA
:10486000304600F0F7FC2065284600F0B5FE00F069
:10487000F3FEE6E72DE9F04104460A2C02D35E4838
:104880000D3838E600F0A0FE06465C4904EB440013
:1048900000EBC400096801EB8004A088C8B104F1F2
:1048A000140000F0A1F8544D0A3DA8B104F11C0019
:1048B000074600F099F888B104F1240000F094F85C
:1048C00070B1608A218A0844E18888420ED0EC1CCD
:1048D00007E0494C083C04E02C4602E02C4600E08E
:1048E0002C46304600F078FE204604E6256800207D
:1048F0002060A08041483946001D00F06EF8304627
:1049000000F06AFE3F4829460068BDE8F04100F02B
:10491000ACBD2DE9F04106460C460025002C04D024
:104920000A2E05D33448001FE5E53348401DE2E573
:104930001C21204601F00AFC00F046FE03462F49E8
:1049400006EB460000EBC600096801EB8000818899
:1049500081B12660C188A1800189E180818921819E
:10496000C1896181018AE181418AA18181692839F6
:1049700001270BE0204D083D2AE091F810C0266980
:1049800007FA0CF216432661C96A28390A1A14324A
:10499000F3D1016A28393A4607E00F7C666902FACA
:1049A00007F73E436661C96A28390E1A0C36F4D1FE
:1049B000816A2839174608E091F810C0A66907FAFD
:1049C0000CF21643A661C96A28390A1A121DF3D1DE
:1049D000184600F001FE28468DE542684A600860EE
:1049E00042681160416070474168814201D10120F5
:1049F000704700207047000012060002E40000200B
:104A0000A4000020100100202DE9F041BC484060C6
:104A10000060BC484FF4A071006800F0FEFCB84D87
:104A20002D1F286090B1002400262F1D286800EB60
:104A30000411CC8021F8086B386800F053F9641C2D
:104A4000A4B2142CF2D30020BDE8F081AE48FBE7FD
:104A50002DE9F84F06460F461546002D09D0DFF820
:104A6000ACA24FF00009BE4207D9A74C083451460A
:104A700010E0A548801CBDE8F88F00F0A5FD804639
:104A80009F4800F036F970B1404600F0A5FD9E4CFD
:104A9000E41C5146002322469DA0CDF8009000F072
:104AA0000BFB2046E7E796484368D3E9000108601E
:104AB000586853F8081948605E80012018809F806C
:104AC00003F1080464602460D8882860404600F040
:104AD00083FD0020CFE70A464FF6FF71B8E70A468C
:104AE0000121B5E72DE9F843DFF81C82874D002747
:104AF00008F10108142802D34446294626E08049DB
:104B0000091F096801EB001400F05EFD06462088CD
:104B100080B104F10800804600F0EBF880B1414616
:104B2000774800F0DFF82780304600F055FD002080
:104B3000BDE8F883304600F04FFD4446294605E0C5
:104B4000304600F049FD704C0934294600232246C6
:104B50006FA0009700F0B0FA2046E9E72DE9F8438E
:104B60008946694D00276D1CDFF8A081142808D301
:104B700000232A46414666A0009700F09DFA284689
:104B8000D6E75F49091F096801EB001400F01CFD1E
:104B90000646208840B1608890B1401E6080304653
:104BA00000F01AFD0020C3E7304600F015FD002399
:104BB0002A46414656A0009700F07EFA2846B7E7FD
:104BC000B9F1000F0BD000F049FE58B14E4C641DF6
:104BD00054A001F099FE55A001F096FE28E04A4C41
:104BE000241D25E05A48008840B1474CA41D4DA023
:104BF00001F08AFE57A001F087FE19E05E480568C3
:104C0000AC614A46082104F10800FFF700FA30467B
:104C100000F0E2FC00F020FD2879400614D500F0F9
:104C2000D3FC0646A88820F04000A880364CE41D3E
:104C3000304600F0D1FC00232246414634A00097C4
:104C400000F03AFA204673E7002071E72DE9F843B7
:104C50002B49091F096801EB00142B4F7F1C1428F6
:104C600001D3384664E700F0AFFC05462088DFF842
:104C70009C80002688B1A0886188884219D1284686
:104C800000F0AAFC204C002308342246414620A014
:104C9000009600F011FA20464AE7284600F09CFCF6
:104CA00000233A4641461AA0009600F005FA38461D
:104CB0003EE704F1080000F01CF838B16088401CA1
:104CC0006080284600F088FC002031E7E068283842
:104CD00086610821FFF7BEF9284600F07DFC00F050
:104CE000BBFCF1E742684A600860426811604160BD
:104CF00070474168814201D1012070470020704710
:104D0000F40000201001002000070002F8C3B2A147
:104D10006F735F756E73706563696669635F6669FB
:104D20006C6500005B4552525D2000002121214C42
:104D30004F535F4552524E4F5F53454D5F50454E66
:104D4000445F494E544552522121210A000000007F
:104D5000840000202121214C4F535F4552524E4F79
:104D60005F53454D5F50454E445F494E5F4C4F4346
:104D70004B2121210A000000A40000204068884245
:104D800001D100207047486820F0404008440830B6
:104D9000704770B504460E462546002D01D0182EEA
:104DA00001D8002070BD3146204601F0CFF9AE6039
:104DB00010342C606C60606820F0804060600020DF
:104DC00020606068183E66F31D006060012070BDC1
:104DD00030B50023002802D019B142680BE0012051
:104DE00030BD012030BD5468650003D524F0404437
:104DF000234408331268002AF5D182689A4201D20E
:104E0000012030BD4B6080680860C01A8860874808
:104E10000268CA6040680861002030BD10B586B0E5
:104E20000446142101A801F091F901A92046FFF7D9
:104E3000CFFF06B010BD2DE9F04706460D46002411
:104E4000A146002E08D000F0BFFB8046ED1C25F0E7
:104E500003057068754F13E00020BDE8F0874168D6
:104E60004A000CD421F04041A94208D324B1626821
:104E700022F040428A4202D90446A9422DD000685D
:104E80000028ECD1E4B1606820F04040401B0828C5
:104E900023D962190832506820F080405060616860
:104EA000491B083961F31D00506014607068A0420E
:104EB0000ED011463046FFF761FF50B1026008E0A6
:104EC0005BA001F021FD29465BA001F01DFD14E06F
:104ED0007260606865F31D006060606820F00040EB
:104EE00040F08040606004F10809B8682844083048
:104EF000B860F968884200D9F8607068406820F0AE
:104F00004040B0F5806F02D23046FFF787FF404641
:104F100000F062FBB9F1000F02D03868401C386025
:104F200048469AE72DE9F04104460E460125002C3B
:104F300011D086B12068B04203D860680830B04212
:104F40000BD23BA001F0E0FC314647A001F0DCFCB5
:104F50000020BDE8F0810120FBE700F035FB0746AB
:104F6000A6F10802314E506840000ED520689042EC
:104F70000DD01168814208D360680830814204D89E
:104F80002046FFF7FBFE904201D000252DE050683F
:104F900020F08040506020F04040B16800F10803EC
:104FA0008B4204D8081A0838B06000E00246106846
:104FB00068B141684900F9D509E051680B440833EC
:104FC00063F31D0151606168814200D16260114646
:104FD0002046FFF7D3FE10B143685900EDD51146C6
:104FE0002046FFF7CBFE00B10260384600F0F4FA2D
:104FF000012D02D17068401C70602846A9E70B485B
:10500000C068704701460020002901D049680AE0C5
:10501000012070474A68530004D422F04042824283
:1050200000D9104609680029F4D17047FC0000201F
:105030005B4552525D2000007468657265277320DD
:105040006E6F7420656E6F7567682077686F6C652A
:1050500020746F20616C6C6F632025782042797416
:105060006573210A0000000030782578206F757480
:10507000206F662072616E6765210A004218521E19
:10508000491E824202D922EA0100704788437047D4
:1050900070B50546002400F0E1FB00280BD12DB1CE
:1050A0002846FEF7EBF8044604B901242046BDE883
:1050B0007040FEF70BBF70BDF8B50E46069D074C5D
:1050C0002468002C02D031460095A047044886424F
:1050D00001D00020F8BD0020F8BD00000C01002028
:1050E000F8C3B2A12F48016841F470010160704714
:1050F00000F06AFAFEE72C4910200860704710B5EE
:1051000000F012FB04463CB128A001F0FDFB29A0F1
:1051100001F0FAFB204610BD00F034FA204610BD25
:1051200010B5FFF7E8FF29492748086000F042F969
:10513000044644B11DA001F0E7FB214624A001F084
:10514000E3FB204610BDFEF7A3FA04463CB117A0CE
:1051500001F0DAFB25A001F0D7FB204610BDFEF7D9
:10516000BFFCFFF751FC0028F8D1FFF7CBF804464D
:105170003CB10EA001F0C8FB21A001F0C5FB204608
:1051800010BDFDF72EFD04463CB108A001F0BCFBAC
:1051900020A001F0B9FB204610BDFEF715FC002849
:1051A000FAD110BD88ED00E0940000205B4552521A
:1051B0005D2000006F735469636B537461727420D7
:1051C0006572726F720A0000181100201001002031
:1051D0006F734D656D53797374656D496E69742095
:1051E0006572726F722025640A0000006F7354614B
:1051F000736B496E6974206572726F720A000000E9
:105200006F735175657565496E6974206572726F4B
:10521000720A00006F735377546D72496E6974207F
:105220006572726F720A000070B504460E4615462C
:105230004FF0FF30002C0CD0002D0AD000F0C4F944
:10524000B6FBF5F12160A5600021616000F0C4F9B2
:10525000002070BD70B50446002500F0B5F9064683
:10526000D4E90010884210D21E48A168006800F0FE
:10527000D4F805461DB16068401C606005E01AA0C6
:1052800001F042FB1AA001F03FFB304600F0A4F908
:10529000284670BD70B504461248006800F0E5F875
:1052A00005463DB900F090F9616809B1491E616099
:1052B00000F092F9284670BD0A468168104600F059
:1052C00045BF10B500280AD049B142B13BB10468CE
:1052D0000C604168116080681860002010BD0120DA
:1052E00010BD0000100100205B4552525D200000FF
:1052F0004C4F535F416C6C6F634D656D20726574EC
:1053000075726E206661696C210A0000002070478A
:105310002DE9F84F05468846DFF824A2DAF8004068
:105320002746002D02D0B8F1100F02D80120BDE8A9
:10533000F88FA80701D00120F9E700F045F9814670
:1053400005EB08061CE0A0682044A54201D8A6424F
:1053500003D8854212D2864210D37AA001F0D4FA43
:10536000A0683246204400902346294677A001F0E9
:10537000CBFA484600F030F90120D8E72746E46828
:10538000002CE0D141462846FFF703FD50B1DAF882
:10539000000060B1FD600020E860484600F01CF9A4
:1053A0000020C4E7484600F017F90120BFE7CAF81B
:1053B0000050F0E771487249091AA9E770B5044630
:1053C0000125002C09D000F0FFF85D4A11688C42DD
:1053D00005D1C968116000250DE0284670BD0A4658
:1053E00007E08C4203D1C968D160002503E00A467A
:1053F000C9680029F5D100F0EFF8284670BD70B5F6
:105400004F480468002504E06D1C2046FFF706FDA8
:10541000E468002CF8D1284670BD0022002802D094
:1054200009B1FFF708BD1046704710B50346144692
:105430000020002B18D0002916D0002C14D0A20771
:1054400012D12144091D1846FFF7F5FC00280BD0A6
:105450000119491E641EA143884205D0081A40F074
:10546000004041F8040C084610BD10B500280DD0CE
:1054700061B151F8042C002A02DA22F00042891AA4
:10548000FFF750FD012803D0012010BD012010BD01
:10549000002010BD2DE9F04781460D461446002737
:1054A000002C02DA0020BDE8F08700F08DF880467D
:1054B00005B1E4B105B3284650F8040C20F040468D
:1054C000A64200D3264621464846FFF7A6FF0746D8
:1054D00047B132462946384600F01FFE2946484665
:1054E000FFF7C3FF404600F077F83846DBE7294670
:1054F0004846FFF7BAFFF5E721464846FFF78DFF1C
:105500000746EFE710B586B00C4601A9FFF760FC2F
:1055100010B1012006B010BD0198206002986060B3
:105520000398A0600498E060059820610020F1E7EE
:1055300010B5FFF767FD0021002800D8084610BD10
:10554000140100205B4552525D200000706F6F6CAB
:10555000205B25702C20307825782920636F6E66BB
:105560006C696374207769746820706F6F6C205B5E
:1055700025702C2030782578290A00001811002089
:10558000005000202D4C2E4D25602E484FF001017B
:1055900001604FF0020080F314882B4842682A48CB
:1055A0000260294B186887884FF0100847EA0807FF
:1055B0008780D0F800C00CF1240CBCE8FF008CF30D
:1055C0000988AE4662B63047EFF3108072B6704776
:1055D000EFF3108062B6704780F3108870471B4865
:1055E0004FF0805101607047EFF3108C72B6184A8B
:1055F000126822B12DE900509047BDE80050EFF34A
:10560000098020E9F01F104D2E683060B7884FF0F8
:10561000100827EA0807B7800B4840682860878889
:105620004FF0100847EA080787800168B1E8F01FCB
:1056300081F309888CF310887047000020ED00E0AA
:105640000000F0F0A0000020A400002004ED00E025
:1056500088000020FFF7C3BF10B5FFF7B5FF044671
:10566000FDF759FA2D49283848600968814202D06F
:105670002B48008820B12046BDE81040FFF7ACBFA2
:105680002046FFF7A9FFBDE81040FFF7A8BF72B69C
:10569000FEE770B506460D4614464FF0CA3229465D
:1056A000204600F04CFD4FF0CC30206060194438AB
:1056B0004FF0043101604FF0053141604FF0063189
:1056C00081604FF00731C1604FF0083101614FF048
:1056D000093141614FF0103181614FF01131C161E9
:1056E0000021016246624FF0013181624900C162CE
:1056F0004FF0033101634FF012314163AFF271019A
:1057000081630849C1634FF08071016470BDBFF3CC
:105710004F8F30BFBFF36F8F70470000A400002091
:10572000840000200D3D000810B54748006800289F
:1057300003D04FF47A72904201D2444810BDB0FBBE
:10574000F2F1434B1960434900240C604C60B0FBFC
:10575000F2F0401EB0F1807F01D301200AE04FF04B
:10576000E02148613C4AF020107000208861072049
:1057700008610020012801D0002010BD3348801CA2
:1057800010BD10B5FFF720FF4FF0E0218C69324AC1
:105790001F3A1268520103D589692D4A12688C1884
:1057A000FFF71AFF204610BD2DE9F04106460F46CF
:1057B000FFF70AFF014627480CC84FF0E020846934
:1057C000254D1F3D2D686D0103D58469521C43F1A1
:1057D00000031F4805680020A2FB05C803FB0583E2
:1057E00002FB00332A1B1CEB0202434133603A6088
:1057F000BDE8F0410846FFF7EFBE2DE9F041054650
:105800000E46FFF7E1FE014612480CC84FF0E020BB
:1058100044698069201A104F1F3F3F687F0102D5FD
:10582000521C43F10003A2FB04C803FB04830027BE
:1058300002FB07331CEB00027B412B603260BDE8AA
:10584000F0410846FFF7C8BE000000200004000237
:10585000E0000020D800002023ED00E0EFF30580F9
:105860007047FFF7C1BEFEF739BD000070B50446B2
:105870000025207A032802D0042802D002E00C255B
:1058800000E00A25D4E90412E06800F0E5F90544D7
:10589000AD1CE07E68B1D4E90A12606A00F0DCF960
:1058A000D4E90D120646206B00F0D6F930440544C9
:1058B0002D1D206C08B9A16C29B1D4E9111200F09A
:1058C000CBF90544AD1CE06C08B9616D29B1D4E990
:1058D000141200F0C1F90544AD1C284670BD2DE935
:1058E000FE4305460F461446029500260196009693
:1058F0002046FFF7BBFF804600F011F9B84202DDF9
:10590000B01EBDE8FE838DF80460019820F0F00021
:10591000103001909DF8041002A800F034F94146BF
:10592000029800F0CBF8029908440290207A0428EB
:1059300013D05EA102A800F03BF9032102A800F0F9
:1059400022F98DF80060A17E009861F3410000907B
:10595000E17E59B140F004000AE056A102A800F02F
:1059600027F9042102A800F00EF9EAE720F004006C
:105970000090410708D594F83D1061F3C40094F8F5
:105980003C1061F345100090206C08B9A06C18B170
:10599000009840F080000090E06C08B9606D18B18C
:1059A000009840F0400000909DF8001002A800F020
:1059B000EAF8218B02A800F0ECF8D4E9042302A84D
:1059C000E16800F00EF9E07E58B1D4E90A2302A89C
:1059D000616A00F006F9D4E90D2302A8216B00F0FA
:1059E00000F9009E300605D5D4E9112302A8216CE8
:1059F00000F0F7F8700604D54C3402A80ECC00F085
:105A0000F0F80298401B7CE77FB505460E46002063
:105A1000039002920024009002A800F0AEF88DF8E6
:105A20000C000398C0F3031002281AD101A90298B0
:105A300000F095F802990446421802920198104429
:105A4000801A02280DDB02A800F097F88DF80000FC
:105A5000009800F00100287002A800F08EF8307065
:105A6000012404B0204670BD1CB5044600200190FE
:105A70000094022901DA801E1CBD8DF804000198F3
:105A800062F3071001909DF80410684600F07BF85F
:105A90000021009800F012F8009901440091081BC1
:105AA0001CBD0E22E0E70C22DEE700004D514973D9
:105AB000647000004D5154540000000010B50446BD
:105AC0000020CA1701EB526323F07F02891ACAB281
:105AD000D911002901DD42F08002034600F10100E6
